:020000040800F2
:100000002016002045010008C72300084B220008E5
:10001000C52300088D060008212A00080000000002
:100020000000000000000000000000005701000870
:100030008F060008000000005B010008E9230008AB
:100040005F0100085F0100085F0100085F01000810
:100050005F0100085F0100085F0100085F01000800
:100060005F0100085F0100085F0100085F010008F0
:100070005F0100085F0100085F0100085F010008E0
:100080005F0100085F0100085F0100085F010008D0
:100090005F0100085F0100085F0100085F010008C0
:1000A0005F0100085F0100085F0100085F010008B0
:1000B0009D2400085F0100085F0100085F0100083F
:1000C0005F0100085F0100085F0100085F01000890
:1000D0005F0100085F010008B1280008112900082D
:1000E0005F0100085F0100085F0100085F01000870
:1000F0005F0100085F0100085F0100085F01000860
:100100005F0100085F0100085F0100085F0100084F
:100110005F0100085F0100085F0100085F0100083F
:100120005F0100085F0100085F0100085F0100082F
:10013000DFF80CD000F014FA00480047CD2C00087E
:10014000201600200648804706480047FEE7FEE7E5
:10015000FEE7FEE7FEE7FEE7FEE7FEE7FEE7FEE777
:100160005524000831010008202A04DB203A21FA36
:1001700002F00021704721FA02F3D040C2F12002C0
:100180009140084319467047D2B201E000F8012BB4
:10019000491EFBD270470022F6E710B513460A4607
:1001A00004461946FFF7F0FF204610BD30B505465E
:1001B0002A460B4612F8010B13F8014B08B1A04276
:1001C000F8D01CB1002802D06D1CF1E7284630BDE4
:1001D00070B5064602F04AFC046805460A22002172
:1001E000304600F027F92C6070BD2DE9FE4F8046A7
:1001F00081EA0300C00F0C46009021F0004123F07B
:100200000045B8EB0200A94105D240462146904680
:100210001C460B46024623F00040104347D0270DF2
:10022000C7F30A00C3F30A510290401A0190402814
:100230006BDAC3F3130040F4801B0098924620B1A0
:100240000023D2EB030A63EB0B0B01985946C0F174
:100250004002504600F0CDF806460D46504659463D
:10026000019A00F0D5F810EB08006141002487EAFC
:10027000115284EAE7731A4340D0009A62B3019A9C
:10028000012A4FEA075215DC001B61EB02014FF017
:10029000004202EA0752CDE90042001C41F58011FC
:1002A00032462B4600F00DF903B0BDE8F08F404612
:1002B0002146F9E7001B61EB0201001C41F58013A8
:1002C00000185B412018A2F5001747EB030140EA34
:1002D000D570B6196D4111E06D084FEA360645EA52
:1002E000C0754FEA0752001B61EB0201001C41F58B
:1002F000801149084FEA30000019514132462B461F
:1003000003B0BDE8F04F00F0CDB8009801224000E6
:100310000023D0EB020263EBE073009821464FEA22
:10032000E074B8EB000061EB0401E9E783F00043FF
:100330005BE781F0004158E770B521F000430343CB
:100340000CD0C1F30A550024D5EB040564EB04037B
:10035000D617AD1AB34102DB0020014670BD20184C
:1003600041EB025170BD0EB5C10F80EAE070084448
:10037000CA07002140F233438DE80E000A460B46BF
:1003800000F09FF803B000BD70B5C1F30A5201F050
:1003900000450024C1F3130140F2FF3341F4801102
:1003A0009A4201DA002070BD40F233439A42A2F231
:1003B000334203DC5242FFF7D7FE00E090402C436B
:1003C000F1D0404270BD30B50B46014600202022DE
:1003D000012409E021FA02F59D4205D303FA02F552
:1003E000491B04FA02F52844151EA2F10102F1DCB2
:1003F00030BD202A04DB203A00FA02F100207047C9
:100400009140C2F1200320FA03F319439040704752
:10041000202A06DBCB17203A41FA02F043EAE073C8
:1004200006E041FA02F3D040C2F1200291400843B5
:10043000194670472DE9F04791460F46804604461D
:10044000002614F8015B2DB100F09CF80068405DB7
:10045000C007F6D12B2D02D02D2D18D0641E4A4690
:100460003946204600F092F827B13968A14201D1FF
:10047000C7F8008071054FF002040BD540420028F8
:1004800003DD02F0F3FA0460A007BDE8F08746F44C
:100490008066E4E70028F8DA02F0E8FA04606FF01A
:1004A0000040F2E710B5141E73F1000408DA401C96
:1004B00041F1000192185B411A4301D120F0010083
:1004C00010BD2DE9F04D92469B4611B1B1FA81F273
:1004D00002E0B0FA80F220329046FFF78AFF04462D
:1004E0000F4640EA0A0041EA0B0153465A460843C8
:1004F00013D0114653EA010019D0C8F1400250460A
:10050000FFF732FE05460E46504659464246FFF773
:1005100070FF084305D0012004E020463946BDE8BD
:10052000F08D0020054346EAE0762C4337430A98D5
:100530006305E40AA0EB08000022FD0A44EA4754E0
:100540000A3002D500200146E9E70105101969418A
:10055000DDE9084500196941BDE8F04DA2E700005A
:10056000064C074D06E0E06840F0010394E8070000
:1005700098471034AC42F6D3FFF7DEFD4030000858
:1005800060300008004870473C3000082DE9F05FFB
:1005900082460078002715468B460AF10104B946C9
:1005A000302801D09DB113E014F8010B0127782801
:1005B00003D0582801D045B10AE00DB1102D07D164
:1005C0000027102514F8010B02E0082500E00A2599
:1005D0000026B0460EE005FB080005FB06F10127EA
:1005E00001EB10461FFA80F8B6F5803F00D3B946FC
:1005F00014F8010B294600F018F80028EBDABBF1DB
:10060000000F05D00FB1641E00E05446CBF8004047
:10061000B9F1000F06D002F029FA02210160C81ECC
:10062000BDE8F09F48EA0640FAE73A2800D23038A1
:1006300020F02002412A01D3A2F13700884201D3E1
:100640004FF0FF307047000010B586B00D4881694B
:1006500041F020018161806900F0200001900A4C86
:1006600000228021204600F0D1FB8021029101214F
:1006700003910221059102A9204600F0BFFA06B0BD
:1006800010BD00000010024000140140FEE7FEE72C
:1006900070B50024012240210E4800F0B7FB4FF452
:1006A0007A75284600F09FFA0FE02B4600220AA137
:1006B0000AA000F02FF808B1012070BD00F024FA64
:1006C000284600F090FA641CE4B20A2CEDD3002016
:1006D00070BD0000001401404F4B00004154000069
:1006E0000B49B1F800046FF30E00A1F80004B1F853
:1006F000000420F40040A1F80004002000224FF480
:1007000080630A54401C80B29842FAD370470000BC
:10071000DC0100202DE9F04184460C4615461F46B9
:100720001F4EB6F800046FF30E00A6F800046246F0
:100730001CA11E4802F0F2F854EA050014D0384615
:1007400000F051FAB6F800140020C1F30E01705405
:10075000314617A002F066F98CB185B121463046CA
:10076000FFF724FD48B902E00120BDE8F0812946E9
:100770000B48FFF71BFD0028F7D00120F5E73CB13F
:1007800021460748FFF712FD0028EED00120ECE7D4
:1007900029460348FFF70AFD0028E6D00120E4E7D8
:1007A000DC01002025730D0A000000000044004019
:1007B0002573000030B585B00024002801D0012247
:1007C00000E000220BA1684602F03CF94FF4FA75F4
:1007D0000BE02B4600220BA16846FFF79BFF10B1F0
:1007E000012005B030BD641CE4B20A2CF1D3002016
:1007F000F7E7000041542B4349504D55583D2564BF
:10080000000000004F4B000010B54FF47A7000F06C
:10081000EAF905A1054802F081F8BDE810404FF45F
:10082000FA7000F0E0B900002B2B2B0000440040D0
:1008300030B585B01A48816941F020018161816934
:1008400001F020010091816941F00401816180691A
:1008500000F0040000900420019002200290032484
:100860000494104D01A9284600F0C8F9082101910F
:1008700000210291039101A9284600F0BFF90A4D19
:1008800000224021284600F0C1FA402101910121B7
:100890000291049401A9284600F0B0F905B030BDDA
:1008A00000100240000801400014014010B54FF450
:1008B000FA7300220DA10EA0FFF72CFFA0B110A12A
:1008C0001248FFF773FC08B1022010BD10A10F48B9
:1008D000FFF76CFC08B1032010BD10A10B48FFF717
:1008E00065FC08B1042010BD002010BD4F4B000076
:1008F00041542B4349505354415455530000000078
:100900005354415455533A320D0A0000DC01002083
:100910005354415455533A330D0A00005354415433
:1009200055533A340D0A000010B5FFF781FFBDE8BA
:10093000104000F0FDB8000030B59FB000240B4619
:1009400002460BA101A802F07DF841F288350BE0C8
:100950002B4600220BA101A8FFF7DCFE10B10120FD
:100960001FB030BD641CE4B20A2CF1D30020F7E7BD
:1009700041542B43574A41503D222573222C2225B6
:10098000732200004F4B0000F0B5B9B004460F468B
:1009900015461E46642120A8FFF7FDFB14B1012C6B
:1009A0000FD107E03B4612A212A120A8009502F049
:1009B00049F806E03B4613A20EA120A8009502F0DC
:1009C00041F8052E06D220AB32460FA102A802F054
:1009D00039F804E020AA11A102A802F033F84FF47C
:1009E0007A6312A215A102A8FFF794FE39B0F0BDF8
:1009F00054435000222573222C222573222C257368
:100A0000000000005544500041542B4349505354BA
:100A10004152543D25642C257300000041542B4362
:100A2000495053544152543D25730000414C5245A6
:100A3000415920434F4E4E45435400004F4B000058
:100A400070B50446002540F6C4165CB1012C10D0E8
:100A5000022C15D00020002803D16D1CEDB20A2D08
:100A6000F3D370BD33460AA20CA10DA0FFF752FECE
:100A7000F1E7334606A209A10CA0FFF74BFEEAE717
:100A8000334603A205A10CA0FFF744FEE3E70000F4
:100A90006E6F206368616E67650000004F4B000059
:100AA00041542B43574D4F44453D310041542B4356
:100AB000574D4F44453D320041542B43574D4F4411
:100AC000453D330070B505460024FFF709FE0B498C
:100AD000B1F800241204FBD5B1F800240020C2F3C1
:100AE0000E0288540DB1054C05E005A10348FFF73F
:100AF0005DFB00B1014C204670BD0000DC01002010
:100B00002B4950440000000010B5084C0022402141
:100B1000204600F07BF94FF4FA7000F064F82046AC
:100B20000122BDE81040402100F070B900140140DE
:100B300008B51548C16941F40031C161C06900F4CC
:100B400000300090FFF774FE1148104901604FF427
:100B5000E131416000218160C16001610C2242618C
:100B60008161C16101F0BBF900220121262000F062
:100B7000C1F9262000F0B2F9BDE80840012205497C
:100B8000034801F043BA0000001002400044004056
:100B9000E00500201500002010B54FF47A742346BC
:100BA000002207A107A0FFF7B5FD38B12346BDE835
:100BB000104008A202A108A0FFF7ACBD002010BDA4
:100BC0004F4B000041542B4349504D4F44453D315C
:100BD000000000003E00000041542B4349505345A3
:100BE0004E440000704731B500F018F9044600F09B
:100BF00015F90099001B8842F9D338BD2DE9F84F4B
:100C000000230024DFF8DC914FF00F0809F1040AFB
:100C10000AF1040B0BF1040E0127A7400A683A40C1
:100C2000BA4275D1DFF8C0C14D68A5EB0C06654529
:100C30002BD00DDC032D34D005DC35B3012D19D0BC
:100C4000022D2FD11BE0112D16D0122D2AD119E023
:100C5000B6F5881F19D006DCB6F5803F15D0B6F57D
:100C6000801F1FD111E0B6F5001F0ED0B6F5041F8E
:100C700018D10AE0CB6815E0CB681B1D12E0CB68E9
:100C800008330FE0CB680C330CE08B6823B1012BE9
:100C900004D00823476105E0042303E0082307612B
:100CA00000E00023FF2A01D8054601E000F1040519
:100CB00002D84FEA840603E0A4F108064FEA86064C
:100CC0002F6808FA06FC27EA0C0703FA06F647EA3B
:100CD00006072F604D68ED007ED5444DAE6946F0A5
:100CE0000106AE61AD6905F001050095404D24F0A7
:100CF00003067719BE68A5072D0F08FA05FC26EA3A
:100D00000C06DFF8F0C0604503D14FF0000C25E081
:100D100062E0DFF8E4C0604502D14FF0010C1DE055
:100D2000DFF8D8C0604502D14FF0020C16E0DFF8C2
:100D3000D0C0604502D14FF0030C0FE0DFF8C4C013
:100D4000604502D14FF0040C08E0DFF8BCC06045FC
:100D500002D14FF0050C01E04FF0060C0CFA05FC37
:100D60004CEA060CC7F808C04D68ED0305D5D9F864
:100D700000501543C9F8005004E0D9F800509543DD
:100D8000C9F800504D68AD0305D5DAF80050154399
:100D9000CAF8005004E0DAF800509543CAF8005051
:100DA0004D68ED0205D5DBF800501543CBF8005037
:100DB00004E0DBF800509543CBF800504D68AD02DD
:100DC00005D5DEF800501543CEF8005004E0DEF8FB
:100DD00000509543CEF80050641C102CFFF41CAF5B
:100DE000BDE8F88F0004014000001110001002401F
:100DF0000000014000080140000C014000100140CB
:100E00000014014000180140001C0140002A01D0DC
:100E100001617047090401617047000001480068E2
:100E2000704700000400002002480168491C01606E
:100E3000704700000400002010B50748016841F029
:100E400010010160032000F075F8002000F006F8A2
:100E500000F016F8002010BD0020024010B5044636
:100E600000F0D6F94FF47A72B0FBF2F000F0C1FD59
:100E700000222146501E00F03DF8002010BD000069
:100E800008B51548816941F001018161806900F070
:100E900001000090052000F04DF8002211466FF08F
:100EA0000B0000F027F8002211466FF00A0000F056
:100EB00021F8002211466FF0090000F01BF8002213
:100EC0001146101F00F016F80022BDE80840114638
:100ED000501E00F00FB800000010024000F01F028A
:100EE000012191404009800000F1E020C0F800118C
:100EF00070470000F0B40D460D4B1B68C3F302238E
:100F0000C3F10704042C00D90424191D072901D2B8
:100F1000002300E0DB1E012606FA04F1491E2940E9
:100F200099409E40761E16403143F0BC01F04CBA09
:100F30000CED00E000F00701054A10684FF6FF03D2
:100F4000184040EA01200349084310607047000040
:100F50000CED00E00000FA052DE9F04704460F46CD
:100F6000DFF8A492D9F80000A84D00F00701012095
:100F7000430446064FF0020C41F28838B9426FD262
:100F8000D9F8001021F007013943C9F80010D9F849
:100F9000001001F00701B94201D0BDE8F0872178C7
:100FA000890705D56968A26821F0F00111436960DD
:100FB0002178C90761D0616801290BD002291FD0AF
:100FC0009CFAACF2B2FA82F242F0200252092DD021
:100FD0002A682CE093FAA3F2B2FA82F242F02002DD
:100FE000520901D02A6800E06A6A93FAA3F3B3FABF
:100FF00083F303F01F039840024223D10120CCE782
:1010000096FAA6F2B2FA82F242F02002520901D018
:101010002A6800E06A6A96FAA6F3B3FA83F303F04B
:101020001F03984002420DD10120B6E76A6A9CFA7C
:10103000ACF3B3FA83F303F01F039840024201D1EB
:101040000120AAE7686820F0030008436860FFF702
:10105000E5FE0646606801280AD0022815D021E086
:1010600025E0FFF7DBFE801B404501D9032094E714
:101070006868C0F381000128F3D1ADE0FFF7CEFE30
:10108000801B404501D9032087E76868C0F38100D1
:101090000228F3D1A0E0FFF7C1FE801B404501D933
:1010A00003207AE7686810F00C0FF4D194E02178FF
:1010B000890705D56968A26821F0F00111436960CC
:1010C0002178C90779D0616801290BD002291FD086
:1010D0009CFAACF2B2FA82F242F0200252092DD010
:1010E0002A682CE093FAA3F2B2FA82F242F02002CC
:1010F000520901D02A6800E06A6A93FAA3F3B3FAAE
:1011000083F303F01F039840024223D1012044E7F8
:1011100096FAA6F2B2FA82F242F02002520901D007
:101120002A6800E06A6A96FAA6F3B3FA83F303F03A
:101130001F03984002420DD101202EE76A6A9CFAF3
:10114000ACF3B3FA83F303F01F039840024201D1DA
:10115000012022E7686820F0030008436860FFF779
:101160005DFE06466068012809D0022814D020E000
:10117000FFF754FE801B404501D903200DE7686846
:10118000C0F381000128F3D117E0FFF747FE801B71
:10119000404501D9032000E76868C0F381000228B8
:1011A000F3D10AE0FFF73AFE801B404501D9032046
:1011B000F3E6686810F00C0FF4D1D9F8000020F0C5
:1011C00007003843C9F80000D9F8000000F0070014
:1011D000B84201D00120E0E62078400705D56868D4
:1011E000E16820F4E060084368602078000706D5D5
:1011F0006868216920F4605040EAC10068600020FE
:10120000FFF72CFE0020C8E600200240001002403C
:1012100000B500F043F808494968F02292FAA2F2BA
:1012200001F0F001B2FA82F2D140044A515CC840A8
:101230000349086000BD000000100240A82F00080C
:101240000000002000B5FFF7E3FF074949684FF4AD
:10125000E06292FAA2F201F4E061B2FA82F2D140C5
:10126000024A515CC84000BD00100240A82F00088F
:1012700000B5FFF7CDFF074949684FF4605292FA75
:10128000A2F201F46051B2FA82F2D140024A515CFA
:10129000C84000BD00100240A82F000810B585B05E
:1012A0001AA0D0E90031D0E90220CDE90131CDE921
:1012B00003201AA000680090194B5968194801F0E2
:1012C0000C02042A1DD0082A1BD14FF4701494FA82
:1012D000A4F401F47012B4FA84F4E24001ACA25C0C
:1012E000C90310D559684FF4003393FAA3F301F4FE
:1012F0000031B3FA83F3D9401DF80110B0FBF1F0CF
:10130000504305B010BD08485043FAE702030405F6
:10131000060708090A0B0C0D0E0F10100102000041
:101320000010024000127A0000093D002DE9F84F3C
:101330000446F94D20784FF00106C00775D0686863
:101340007704C0F38100012807D06868C0F38100EA
:1013500002281DD16868C0031AD597FAA7F0B0FA21
:1013600080F040F02000400901D0286800E0686A61
:1013700097FAA7F1B1FA81F101F01F0206FA02F122
:10138000084252D0606800284FD10120BDE8F88F94
:10139000286820F480302860286820F480202860A5
:1013A000FFF73CFD804607E0FFF738FDA0EB0800A3
:1013B000642801D90320E9E797FAA7F0B0FA80F092
:1013C00040F02000400901D0286800E0686A97FAE0
:1013D000A7F1B1FA81F101F01F0106FA01F108420B
:1013E000E2D16068B0F5803F11D0A8B1B0F5A02F70
:1013F0001CD0286820F480302860286820F48020E1
:1014000028606068C8B3FFF709FD80461FE02868C0
:1014100040F480302860F4E7286820F480302860A9
:10142000286820F480202860EBE748E0286840F432
:1014300080202860286840F480302860E1E7FFF7CA
:10144000EDFCA0EB0800642801D903209EE797FA81
:10145000A7F0B0FA80F040F02000400901D02868E1
:1014600000E0686A97FAA7F1B1FA81F101F01F0173
:1014700006FA01F10842E2D021E0FFE7FFF7CEFCD7
:10148000804607E0FFF7CAFCA0EB0800642801D9FA
:1014900003207BE797FAA7F0B0FA80F040F0200035
:1014A000400901D0286800E0686A97FAA7F1B1FA0C
:1014B00081F101F01F0106FA01F10842E2D1207822
:1014C000DFF8588280074FF0000B4FF0020732D54B
:1014D00068684FF0F80A10F00C0F07D06868C0F386
:1014E0008100022828D16868C00325D497FAA7F0A4
:1014F000B0FA80F040F02000400901D0286800E0F8
:10150000686A97FAA7F1B1FA81F101F01F0106FAB2
:1015100001F1084204D02069012801D0012035E7FB
:1015200028689AFAAAF26169B2FA82F220F0F80009
:101530009140084328605CE0206990B396FAA6F0D9
:10154000B0FA80F048F82060FFF768FC814607E0B9
:10155000FFF764FCA0EB0900022801D9032015E77E
:1015600097FAA7F0B0FA80F040F02000400901D0CF
:10157000286800E0686A97FAA7F1B1FA81F101F0F2
:101580001F0106FA01F10842E2D028689AFAAAF28D
:101590006169B2FA82F220F0F800914008432860B5
:1015A00027E0FFE796FAA6F0B0FA80F048F820B0FE
:1015B000FFF734FC814607E0FFF730FCA0EB0900A1
:1015C000022801D90320E1E697FAA7F0B0FA80F0EB
:1015D00040F02000400901D0286800E0686A97FACE
:1015E000A7F1B1FA81F101F01F0106FA01F10842F9
:1015F000E2D12078000770D5A069C0B396FAA6F0B2
:10160000B0FA80F008EB8000C0F88064FFF706FCB9
:10161000814607E0FFF702FCA0EB0900022801D990
:101620000320B3E697FAA7F0B0FA80F040F060002C
:10163000B6EB501F01D128680BE097FAA7F0B0FA7B
:1016400080F040F06000B7EB501F01D1286A00E045
:10165000686A97FAA7F1B1FA81F101F01F0206FA60
:1016600002F10842D6D00120FFF7BDFA35E0FFE7CE
:1016700096FAA6F0B0FA80F008EB8000C0F880B4CB
:10168000FFF7CCFB814607E0FFF7C8FBA0EB0900A2
:10169000022801D9032079E697FAA7F0B0FA80F082
:1016A00040F06000B6EB501F01D128680BE097FABC
:1016B000A7F0B0FA80F040F06000B7EB501F01D106
:1016C000286A00E0686A97FAA7F1B1FA81F101F09F
:1016D0001F0206FA02F10842D6D12078400770D5E1
:1016E000E86940F08050E861E86900F080500090BF
:1016F000DFF82CA0DAF8000040F48070CAF800008F
:10170000FFF78CFB81460DE0FFF788FBA0EB09009B
:10171000642807D9032039E6001002400000424245
:1017200000700040DAF80000C005EDD5286A20F00E
:1017300001002862286A20F004002862FFF76EFB8F
:10174000814641F2883A07E0FFF768FBA0EB090009
:10175000504501D9032019E697FAA7F0B0FA80F0B6
:1017600040F04000B6EB501F01D128680BE097FA1B
:10177000A7F0B0FA80F040F04000B7EB501F01D165
:10178000286A00E0686A97FAA7F1B1FA81F101F0DE
:101790001F0106FA01F10842D6D1E068012811D0F4
:1017A000A8B105281CD0286A20F001002862286A08
:1017B00020F004002862E068C8B3FFF72FFB8146E1
:1017C0001FE06EE0286A40F001002862F3E7286A13
:1017D00020F001002862286A20F004002862EAE76D
:1017E000286A40F004002862286A40F0010028625C
:1017F000E1E7FFF713FBA0EB0900504501D90320F7
:10180000C4E597FAA7F0B0FA80F040F04000B6EBDC
:10181000501F01D128680CE097FAA7F0B0FA80F0C9
:1018200040F04000B7EB501F02D1286A01E00BE006
:10183000686A97FAA7F1B1FA81F101F01F0206FA7E
:1018400002F10842D5D02CE0FFF7E8FA814607E024
:10185000FFF7E4FAA0EB0900504501D9032095E514
:1018600097FAA7F0B0FA80F040F04000B6EB501FB6
:1018700001D128680BE097FAA7F0B0FA80F040F0A9
:101880004000B7EB501F01D1286A00E0686A97FA60
:10189000A7F1B1FA81F101F01F0206FA02F1084244
:1018A000D6D1E06980B36968C1F38101022970D0A3
:1018B0004FF080794FF00077022809D099FAA9F00B
:1018C000B0FA80F048F820B0FFF7A8FA044668E0C4
:1018D00099FAA9F0B0FA80F048F820B0FFF79EFA24
:1018E000824607E0FFF79AFAA0EB0A00022801D926
:1018F00003204BE597FAA7F0B0FA80F040F0200003
:10190000400902D0286801E060E0686A97FAA7F110
:10191000B1FA81F101F01F0106FA01F10842E1D1AB
:10192000206AB0F5803F05D16868A16820F40030D6
:1019300008436860D4E908010843696821F4741118
:101940000843686099FAA9F0B0FA80F048F820607E
:10195000FFF764FA044606E0FFF760FA001B02286E
:1019600001D9032012E597FAA7F0B0FA80F040F011
:101970002000400901D0296800E0696A97FAA7F0C1
:10198000B0FA80F000F01F0006FA00F00142E3D048
:101990001CE01DE0FFF742FA001B022801D90320DA
:1019A000F4E497FAA7F0B0FA80F040F02000400984
:1019B00001D0296800E0696A97FAA7F0B0FA80F0D0
:1019C00000F01F0006FA00F00142E3D10020DDE440
:1019D0000120DBE44FF0E021042804D0086920F066
:1019E000040008617047086940F00400086170470E
:1019F000704710B5401EB0F1807F01D3012010BDAB
:101A00004FF0E02460610F21601700F0DDFC002042
:101A1000A06107202061002010BD10B5FFF7E8FF8E
:101A200010BD7047704730B590F83820012A20D09B
:101A3000012380F83830022280F839200268546887
:101A400024F070045460026854680D682C4354609C
:101A50000268946824F0800494600268946849687D
:101A60000C43946080F83930002180F83810002051
:101A700030BD022030BD10B50446002C03D094F8D0
:101A8000390010B107E0012010BD002084F83800B3
:101A9000204600F00DF8022084F83900211D20684E
:101AA00000F002FD012084F83900002010BD000084
:101AB00008B50068B0F1804F12D10A48C16941F001
:101AC0000101C161C06900F00100009000221146CF
:101AD0001C20FFF70FFABDE808401C20FFF7FEB9F5
:101AE00008BD0000001002400168CA6842F001020F
:101AF000CA600068016841F0010101600020704780
:101B000070B5044694F83800012817D0012584F8F0
:101B10003850022084F839002068826822F0770269
:101B200022F47F428260086850283AD00DDC2028D9
:101B30005FD005DCA0B3102864D155E0022070BD51
:101B400030285BD040285DD13FE0602833D070283A
:101B50000CD0B0F5805F03D0B0F5005F52D113E038
:101B60002068816821F0070181604BE0CB68D1E9F2
:101B70000121206800F0DCFC2068816821F07701F9
:101B800041F0770181603DE0CB68D1E90121206817
:101B900000F0CEFC2068816841F48041816031E032
:101BA0001DE0CA684968206800F0D4FC5021206814
:101BB00000F0C8FC26E0CA684968206800F0DBFC39
:101BC0006021206800F0BEFC1CE0CA6849682068FB
:101BD00000F0C0FC4021206800F0B4FC12E00021BD
:101BE000206800F0AFFC0DE01021206800F0AAFC96
:101BF00008E02021206800F0A5FC03E030212068E7
:101C000000F0A0FC383465700020207070BD704773
:101C100070B50446206801694FF00005C943890783
:101C200016D4C168C943890712D4E91E0161012095
:101C3000207620688069800703D02046FFF7E7FF01
:101C400005E0204600F09BF8204600F099F8257644
:101C500020680169C943490718D4C168C9434907C5
:101C600014D46FF00401016102202076206880699D
:101C700010F4407F03D02046FFF7C9FF05E020465F
:101C800000F07DF8204600F07BF825762068016999
:101C9000C943090717D4C168C943090713D46FF0B2
:101CA00008010161042020762068C069800703D004
:101CB0002046FFF7ACFF05E0204600F060F8204624
:101CC00000F05EF8257620680169C943C90618D47A
:101CD000C168C943C90614D46FF01001016108201E
:101CE00020762068C06910F4407F03D02046FFF7BB
:101CF0008EFF05E0204600F042F8204600F040F854
:101D0000257620680169C943C90708D1C168C9435C
:101D1000C90704D1891E0161204600F033F820680C
:101D20000169C943090609D4C168C943090605D434
:101D30006FF0800101612046FFF773FE20680169A2
:101D4000C943490609D4C168C943490605D46FF09F
:101D500040010161204600F061F820680169C94333
:101D600089060BD4C168C943890607D46FF02001E6
:101D700001612046BDE87040FFF754BE70BD70475A
:101D80007047000070B50068B0F1804F2DD1174D3D
:101D9000A868002829D06A68194C501C686014A1F2
:101DA000204600F0BBFD6868142804DC032215A15E
:101DB000204600F0B3FD6868142816DD14380A21A7
:101DC00090FBF1F0FEF7CFFA4FF0FF32FEF7B4FAD6
:101DD0000022114BFEF709FAFEF7D6FA024620461A
:101DE000BDE8704007A100F099BD70BD080000205B
:101DF000CDA3B3B5CAB1BCE4CEAA2564730D0A0065
:101E000000440040CDA3B3B5B7D1D3C3CEAA256457
:101E1000D4AA0D0A00000000000008407047704777
:101E200038B5044620680168C1F30001C26802F4B5
:101E30008072002904D01AB1E16B41F00101E16325
:101E40000168C1F34002416901F0010122B119B1F9
:101E5000E26B42F00402E2630268C2F3800222B144
:101E600019B1E26B42F00202E2630268C2F3C002FF
:101E700022B119B1E16B41F00801E1630168C1F3DE
:101E80004011C06800F0200019B110B1204600F0E8
:101E900099FB20680168C1F3C011C06800F08000A0
:101EA00019B110B1204600F06BFC20680168C1F345
:101EB0008011C06800F0400019B110B1204600F058
:101EC0006CFBE06B002809D0206801684068009036
:101ED000012084F839002046FFF7A1FF38BD70B516
:101EE0000446002C04D094F83900002510B106E017
:101EF000012070BD84F83850204600F021F80220FF
:101F000084F839002068C16821F40051C16020467E
:101F100000F0B0FB2068016921F490410161206864
:101F2000416921F02A0141612068C16841F40051F2
:101F3000C160E563012084F83900002070BD000015
:101F40002DE9F04786B005462B49286800262B4C22
:101F500002274FF003084FF4806988421AD1A06924
:101F600040F48040A061A06900F4804001904815D1
:101F700002900397CDF81480DFF884A002A95046A0
:101F8000FEF73CFECDF808900396049602A9504651
:101F9000FEF734FE1B492868884229D1E06940F4E5
:101FA0008020E061E06900F480200190A06940F0A9
:101FB0000800A061A06900F008000190CDF8089029
:101FC0000397CDF81480104C02A92046FEF716FEA8
:101FD000E11402910396049602A92046FEF70EFE34
:101FE000002211462720FEF785FF2720FEF776FF07
:101FF00006B0BDE8F0870000003801400010024044
:102000000008014000480040000C014090F83930C1
:10201000012B03D0122B01D00220704731B32AB319
:1020200090F83830012B23D0012380F838308162BA
:102030008285C2850021C16390F83920122A19D007
:10204000222280F8392080F838100168CA6842F4EA
:102050008072CA6001684A6942F001024A61006800
:10206000C16841F02001C160002070470120704725
:1020700002207047322280F83920E4E770B5044628
:102080003248216881421BD1314AB2F8000440F243
:10209000FF31C0F30E0088420DD22E480578B2F809
:1020A0000004B2F80034C0F30E01481C60F30E03C4
:1020B000A2F800345554012226492748FFF7A6FF0D
:1020C0002649206888423FD1254C264D20786278E9
:1020D000411CC9B221702A54681810F8011C0A2941
:1020E00009D110F8020C0D2805D100202070FF2125
:1020F0002846FEF750F81A490122491C1A48FFF7F2
:1021000085FF2978194E312904D10022102130464B
:10211000FEF77CFE2878322804D1002220213046A8
:10212000FEF774FE2878332804D10022402130467F
:10213000FEF76CFE2878342804D100228021304636
:10214000FEF764FE0120A06070BD00000044004066
:10215000DC01002015000020E005002000480040C0
:1021600008000020200000209C0100200008014001
:102170002DE9F04104460D46984694F839000128AF
:1021800004D0222802D00220BDE8F0819DB192B196
:1021900094F83800012810D0012684F83860002710
:1021A000E76394F83900222809D0122084F8390016
:1021B000A284E2842EE00120E6E70220E4E7322058
:1021C00084F83900F4E7401EE084A068B0F5805F31
:1021D00008D0434600228021204600F006FBA8B12B
:1021E0000320D1E7434600228021204600F0FDFA7B
:1021F00008B10320C8E728882168C0F308004860B8
:10220000206908B16D1C05E0AD1C03E0216815F8DC
:10221000010B4860E08C0028D5D1434600224021C4
:10222000204600F0E2FA08B10320ADE794F8390047
:10223000322805D084F8396084F838700020A3E78C
:10224000222084F83900F7E77047FEE770B586B0C2
:102250002648816941F004018161816901F004012E
:102260000191816941F004018161816901F00401FA
:102270000191816941F004018161806900F00400ED
:1022800001901B4E002210213046FEF7BFFD0022B8
:1022900020213046FEF7BAFD002240213046FEF7ED
:1022A000B5FD10200290012403940225059502A992
:1022B0003046FEF7A3FC202002900394059502A966
:1022C0003046FEF79BFC402002900394059502A93E
:1022D0003046FEF793FC802002900394059502A9F6
:1022E0003046FEF78BFC06B070BD000000100240C7
:1022F0000008014082B00D48816941F0040181610C
:10230000806900F0040001900A48094901604FF417
:10231000E131416000218160C16001610C224261B4
:102320008161C16102B0FFF7DABD00000010024018
:10233000003801405C01002010B586B000240294F2
:102340000394049405940094019413484FF0804141
:10235000016041F61F414160846042F20F71C1602B
:102360000461FFF788FB08B1FEF73CFC4FF4805096
:10237000029002A90848FFF7C3FB08B1FEF732FC40
:102380000094019469460448FFF74DFB002801D0F2
:10239000FEF728FC06B010BD2001002008480749C0
:1023A00001604FF41651416000218160C1600161FC
:1023B0000C2242618161C161FFF791BD004800407C
:1023C0009C010020FEE770470907090E002806DA85
:1023D00000F00F0000F1E02080F8141D704700F1BC
:1023E000E02080F80014704710B5FEF71DFDBDE831
:1023F0001040FFF712BB30B58FB0012005900004EC
:1024000006900024079402250C950D904FF4E010DF
:102410000E9005A8FEF78AFF0F2000900195029408
:1024200068020390049402216846FEF795FDFEF7CA
:10243000EFFE4FF47A71B0FBF1F0FFF7DAFA042007
:10244000FFF7C8FA00221146501EFEF753FD0FB0E9
:1024500030BD00000D48016841F001010160416894
:102460000B4A1140416001680A4A1140016001684D
:1024700021F480210160416821F4FE0141604FF4A4
:102480001F0181600449C0030860704700100240CA
:102490000000FFF8FFFFF6FE08ED00E00148FFF73F
:1024A000B7BB0000200100202DE9F04102681B4D60
:1024B0001B4E1C4FDFF870C01C4B4FF08048A842E9
:1024C00009D0984207D0404505D0B04203D0B84269
:1024D00001D0604503D122F070044A682243A8422B
:1024E00009D0984207D0404505D0B04203D0B84249
:1024F00001D0604503D122F44074CA6822430260CF
:102500008A68C2620A688262A84201D0984201D1F8
:102510000969016301214161BDE8F081002C01409E
:102520000004004000080040000C0040003401405E
:1025300010B5846824F47F4442EA03220A4322430C
:10254000826010BD826822F070020A4342F00701E7
:102550008160704710B5036A046A24F001040462C4
:10256000846924F0F00444EA021423F00A020A43C6
:102570008461026210BD10B5036A23F01003036288
:102580008469036A24F4704444EA023223F0A0030D
:1025900043EA01118261016210BD10B50168CA6889
:1025A00022F04002CA6090F83910322906D0012189
:1025B00080F83910FFF748FE002010BD222180F876
:1025C0003910F7E710B590F83910222903D03229D5
:1025D00001D0022010BD8168B1F5805F11D0016982
:1025E00019B30168496801F07F03816A4A1C82625D
:1025F0000B70C18D491E0904090CC1851CD0002037
:1026000010BD816A02693AB102685268D2B20A808A
:10261000816A491C8162ECE702685268C2F30802D1
:102620000A80816A891C8162E3E701684A68816ADD
:102630004B1C83620A70DCE70168CA6822F0200242
:10264000CA6090F83910322910D00168CA6822F4A3
:102650008072CA6001684A6922F001024A61012160
:1026600080F83910FFF70AFD002010BD122180F814
:102670003910F7E72DE9F041044620680169E26866
:1026800021F4405111430161A1682069014360694F
:1026900001432068C26841F20C639A430A43C26056
:1026A00020684169A26921F44071114341613349B5
:1026B000206864253226884230D1FEF7D9FD00EB30
:1026C000C00101EB001061688900B0FBF1F0B0FBC4
:1026D000F5F7FEF7CDFD00EBC00101EB00106168DE
:1026E0008900B0FBF1F8FEF7C3FD00EBC00101EB80
:1026F000001061688900B0FBF1F0B0FBF5F06FF0FD
:102700001801484308EB800006EB0010B0FBF5F021
:10271000216867F31F108860BDE8F081FEF792FD25
:1027200000EBC00101EB001061688900B0FBF1F023
:10273000B0FBF5F7FEF786FD00EBC00101EB0010E2
:1027400061688900B0FBF1F8FEF77CFD00EBC00189
:1027500001EB001061688900B0FBF1F0B0FBF5F00F
:102760006FF01801484308EB800006EB0010B0FB47
:10277000F5F0216867F31F108860CDE7003801404D
:1027800090F83910122903D0322901D00220704765
:102790008168B1F5805F0CD0016A4A1C0262026850
:1027A00009785160C18C491E0904090CC18410D0FC
:1027B00019E0016A02680988C1F3080151600169E2
:1027C00019B1016A491C0162ECE7016A891C0162C6
:1027D000E8E70168CA6822F08002CA600068C16840
:1027E00041F04001C160002070472DE9F0470446E8
:1027F0000F4692461D46FEF711FB06464FF00008B5
:102800004FF00109BAF1000F23D04AE0681C20D034
:1028100025B1FEF703FB801BA8421AD92068C168C6
:1028200021F08001C1602068C16821F02001C160F1
:102830002068C16821F48071C1602068416921F07D
:102840000101416184F8399084F838800320BDE8A3
:10285000F0872068006837EA0000D7D126E0681CBE
:102860001FD025B1FEF7DAFA801BA84219D92068DB
:10287000C16821F08001C1602068C16821F0200199
:10288000C1602068C16821F48071C160206841691D
:1028900021F00101416184F8399084F838800320E7
:1028A000D5E72068006837EA0000D8D00020CEE7DE
:1028B00010B50F48FFF7B4FA0D480068C068C006AD
:1028C00014D50C48B0F8001441F40041A0F80014ED
:1028D000094800680949087009A10648FDF766FC27
:1028E00008B1012000E000200849087010BD000078
:1028F000E0050020DC010020044400401500002019
:10290000434C4F5345440D0A0000000014000020C2
:102910000148FFF785BA00009C0100200FB430B5D4
:1029200087B00CA801903D4D10E05C2816D02528FA
:1029300036D0FF2301223948FFF71AFC0B98401CC0
:102940000B9028680168C9430906FBD40B990878E5
:102950000028EAD107B030BC5DF814FB491C0B918C
:1029600008786E2810D0722802D0491C0B91EDE730
:102970000D200290FF23012202A92848FFF7F8FB4F
:102980000B98401C0B90E1E70A200290FF230122E4
:1029900002A92248FFF7ECFB0B98401C0B90D5E7EF
:1029A000491C0B91087864281BD0732802D0491C5D
:1029B0000B91CBE7019810C801900BE0FF23012297
:1029C00021461648FFF7D4FB28680168C943090669
:1029D000FBD4641C20780028F0D10B98401C0B908D
:1029E000B4E7019901C901910A2203A900F040F955
:1029F00003AC0BE0FF23012221460848FFF7B8FB98
:102A000028680168C9430906FBD4641C20780028A3
:102A1000F0D10B98401C0B9098E70000E0050020D7
:102A2000FEE700000FB4054B10B503A9044A029855
:102A300000F030F810BC5DF814FB0000592C0008C1
:102A4000180000200FB4084B10B504A902AA03987F
:102A500000F020F8044602A9002000F0F7F8204614
:102A600010BC5DF814FB00004D2C000800487047B6
:102A70001C00002002E008C8121F08C1002AFAD179
:102A800070477047002001E001C1121F002AFBD1EE
:102A9000704700002DE9FF4F8BB09A460F46054660
:102AA000002606E025280BD052460D9990476D1C54
:102AB000761C28780028F5D10FB03046BDE8F08F9D
:102AC0000024A0460122604900E0044315F8013FBC
:102AD000203B02FA03F00842F7D128782E2817D1BC
:102AE00015F8010F44F004042A280ED06FF02F02CD
:102AF0002878A0F1300109290AD808EB880102EBF7
:102B0000410100EB01086D1CF2E757F8048B6D1CC6
:102B1000287869283ED006DC0028CDD063280BD069
:102B2000642804D136E0732810D075284BD0524663
:102B30000D999047761C85E017F8040B8DF800007E
:102B400000208DF80100E946012003E057F8049BBE
:102B50004FF0FF3061074FF0000401D40AE0641C1D
:102B600044450DDA8442FADB19F804100029F6D145
:102B700006E0641C8442FCDB19F804100029F8D13B
:102B8000264404E019F8010B52460D999047641E43
:102B9000F8D257E001CF4FF00A0B002802DA40428A
:102BA0002D2102E0210504D52B218DF824100121CF
:102BB00003E0E10705D02021F7E70DF12009089196
:102BC0000CE00021F9E701CF4FF00A0BF9E7594675
:102BD000FDF7F9FB01F1300209F8012D0028F6D1CB
:102BE000ADEB090000F1200B600701D44FF00108A4
:102BF000D84502DDA8EB0B0000E000208046002451
:102C000006E009A85246005D0D999047641C761CA9
:102C100008988442F5DB04E0302052460D99904735
:102C2000761CB8F10001A8F10108F5DC05E019F8FF
:102C3000010B52460D999047761CBBF10001ABF198
:102C4000010BF4DC6D1C34E7092801000A68531CF1
:102C50000B6010707047000013B54FF6FF73012230
:102C600069460248FFF784FA00981CBD5C01002009
:102C7000F0B503460025084600260A2A01D0067052
:102C8000F0BD002B1DD005DA4FF02D0200F8012B0E
:102C9000C3F1000342F210724FF00A0793FBF2F403
:102CA00054EA050C06D004F1300500F8015B04FB82
:102CB0001233012592FBF7F2002AEFDC067008467A
:102CC000F0BD3022027046700846F0BDFEF7B4F841
:102CD000FFF791FBFFF7BAFAFDF7B6FCDFF8C091FA
:102CE000012210214846FEF791F801222021484692
:102CF000FEF78CF8012240214846FEF787F80122B2
:102D000080214846FEF782F8FFF7F4FAFFF714FB3C
:102D1000FFF744FBFDF708FEFDF706FE61A0FFF795
:102D200081FEFDF7B5FC10B165A0FFF77BFE67A043
:102D3000FFF778FE0020FDF783FE10B165A0FFF7D6
:102D400071FE6BA0FFF76EFE6BA16EA0FDF7F4FDA8
:102D50000028F9D06EA0FFF765FE0020FDF72AFDE0
:102D600005236DA26EA10020FDF70EFE0028F7D00E
:102D70006FA0FFF757FEFDF70FFF0028FBD06EA0F6
:102D8000FFF750FE012271497148FFF73FF9714882
:102D90000068C16841F01001C1606F48FEF7A4FEF1
:102DA0006A4C6E4F01260025DFF8B481641E0120B5
:102DB000FDF788FEB7F8000400044BD5B7F800040F
:102DC000C0F30E003D54654966A0FFF72BFE634833
:102DD000FDF7FEF9C0B208283CD2DFE800F0040B92
:102DE000121920272E35002210214846FEF70EF832
:102DF000A6602FE0012210214846FEF707F8A560E3
:102E000028E0002220214846FEF700F8A66021E0D5
:102E1000012220214846FDF7F9FFA5601AE00022B3
:102E200040214846FDF7F2FFA66013E00122402151
:102E30004846FDF7EBFFA5600CE0002280214846E4
:102E4000FDF7E4FFA66005E0012280214846FDF77A
:102E5000DDFFA56098F800000028A8D0FDF7D4FC9D
:102E6000FDF724FD0028FBD0042813D13FA0FFF775
:102E7000D9FD21A123A0FDF75FFD0028F9D005238E
:102E800025A227A10020FDF77FFD0028F7D03FA055
:102E9000FFF7C8FDFDF780FE0028FBD087E70000A4
:102EA00000080140D5FDD4DAC5E4D6C3204553500F
:102EB00038323636202E2E2E2E2E2E0A00000000FE
:102EC00041542074657374204F4B0A000A3C203132
:102ED000203E0A00455350383236365F4E65745FE7
:102EE0004D6F64655F43686F6F7365204F4B0A00D9
:102EF0000A3C2032203E0A0031323334353637382E
:102F0000000000004855415745492050323000002C
:102F10000A3C2033203E0A003830383000000000E0
:102F200031302E3230332E382E3137380000000049
:102F30000A3C2034203E0A00C5E4D6C32045535045
:102F40003832363620CDEAB1CF0A00000900002021
:102F50009C010020E005002020010020DC01002071
:102F6000140000200D0A25730D0A0000D5FDD4DAE7
:102F7000D6D8C1ACC8C8B5E3BACDB7FECEF1C6F756
:102F8000202E2E2E2E2E2E0A00000000D6D8C1ACE8
:102F9000C8C8B5E3BACDB7FECEF1C6F7B3C9B9A676
:102FA0002121210A000000000000000001020304AA
:102FB0000102030406070809004040404040404029
:102FC00040404141414141404040404040404040FC
:102FD00040404040404040404005020202020202A0
:102FE00002020202020202020220202020202020EF
:102FF0002020200202020202020290909090909003
:1030000010101010101010101010101010101010C0
:103010001010101002020202020288888888888834
:103020000808080808080808080808080808080820
:10303000080808080202020240000000B92F000838
:10304000603000080000002020000000742A000802
:10305000803000082000002000160000842A0008AC
:1030600000A24A0400000000000000000000000070
:103070000000000000000000000000000000000050
:0400000508000131BD
:00000001FF
