:020000040800F2
:10000000080600200101000845210008EF1B000838
:10001000B9200008E1080008AD2700080000000032
:10002000000000000000000000000000D1220008D5
:100030009D09000800000000A9220008F122000824
:100040001B0100081B0100081B0100081B01000820
:100050001B0100081B0100081B0100081B01000810
:100060001B0100081B0100081B0100081B01000800
:100070001B0100081B0100081B0100081B010008F0
:100080001B0100081B0100081B0100081B010008E0
:100090001B0100081B0100081B0100081B010008D0
:1000A0001B0100081B0100081B0100081B010008C0
:1000B0001B0100081B0100081B0100081B010008B0
:1000C0001B0100081B0100081B0100081B010008A0
:1000D0001B0100081B010008A12700081B010008E4
:1000E0001B0100081B0100081B010008DFF80CD0F1
:1000F00000F078FB00480047392F00080806002070
:100100000648804706480047FEE7FEE7FEE7FEE7B1
:10011000FEE7FEE7FEE7FEE7FEE7FEE74523000811
:10012000ED000008202A04DB203A21FA02F0002129
:10013000704721FA02F3D040C2F1200291400843F7
:1001400019467047D2B201E000F8012B491EFBD2DC
:1001500070470022F6E710B513460A4604461946D2
:10016000FFF7F0FF204610BDF0B480EA0102D40F83
:100170004200B2EB410F02D20246084611464A0045
:1001800042D0C30DDDB2C1F3C752AD1A202D35DA0E
:10019000C1F3160141F4000204B15242C5F1200638
:1001A00002FA06F12A411044B3EBD05F23D0C4B168
:1001B000012DA0EBC35009DCF0BC4FF0004202EA75
:1001C000C352DBB200F5000000F081BA400000F13C
:1001D000807000EBC350A0F1807040EAD1704900FC
:1001E00009E0490841EAC071A0EBC35000F50000E6
:1001F000400800EBC350F0BC00F060BA614201223D
:1002000002EB4101001BF6E7F0BC704781F00041B2
:10021000AAE780F00040A7E780EA010210B502F0EB
:100220000043400022D04A001FD0010E01EB1261B2
:10023000C0F35600C2F3560240F4000042F400023C
:10024000A0FB022000047F39140400D0401C50EAB7
:10025000124001D44000491EC2B20C0604EBD0107B
:10026000401C4008802A02D003E0002010BD20F08E
:100270000100002900DA0020184310BD420005D01B
:10028000C0F3C7525242914201DC0020704700EB9C
:10029000C15070472DE9FE4F804681EA0300C00F30
:1002A0000C46009021F0004123F00045B8EB02001D
:1002B000A94105D24046214690461C460B460246BF
:1002C00023F00040104347D0270DC7F30A00C3F3C3
:1002D0000A510290401A019040286BDAC3F31300D0
:1002E00040F4801B0098924620B10023D2EB030A11
:1002F00063EB0B0B01985946C0F14002504600F0E9
:10030000BCF906460D4650465946019A00F0C4F91C
:1003100010EB08006141002487EA115284EAE77378
:100320001A4340D0009A62B3019A012A4FEA075259
:1003300015DC001B61EB02014FF0004202EA07529C
:10034000CDE90042001C41F5801132462B4600F0F9
:10035000FBF903B0BDE8F08F40462146F9E7001BEA
:1003600061EB0201001C41F5801300185B4120186D
:10037000A2F5001747EB030140EAD570B6196D41AD
:1003800011E06D084FEA360645EAC0754FEA07529C
:10039000001B61EB0201001C41F5801149084FEA86
:1003A00030000019514132462B4603B0BDE8F04FF2
:1003B00000F0BBB90098012240000023D0EB0202FC
:1003C00063EBE073009821464FEAE074B8EB00005D
:1003D00061EB0401E9E783F000435BE781F0004152
:1003E00058E72DE9FE4F81EA030404F0004421F0B0
:1003F000004100944FF0000B23F0004350EA010449
:100400005ED052EA03045BD0C3F30A54C1F30A5529
:100410002C44A4F2F3340194A0FB0254C1F3130161
:1004200041F48011C3F3130343F4801301FB02442E
:1004300000FB034E840A970A44EA815447EA835733
:10044000A4FB076802958D0A05FB07854FEA932CEC
:1004500004FB0C542705029D4FEA065847EA16375D
:10046000B5EB08056EEB070C870E920E47EA811775
:1004700042EA8312A7FB0201B6EB0B0164EB000416
:100480002B0D43EA0C335E1844EB1C50DA46514600
:10049000E7FB0201C5F313044FEA0B3343EA14539D
:1004A0004FEA0432019C43EA0603A4F10C040294CF
:1004B000009CCDE900B400F047F903B0BDE8F08F2F
:1004C00000200146F9E72DE9F04D81EA030404F02C
:1004D000004B21F0004514464FF0000A23F0004184
:1004E00050EA050220D054EA01021DD0C5F30A5794
:1004F0000246C5F31303C1F31300C1F30A5640F4D7
:10050000801543F48013A7EB0608101BD64608F2AB
:10051000FD3873EB050002D308F1010801E09218E1
:100520005B41B8F1000F03DA00200146BDE8F08D11
:1005300000204FF48011064684460EE0171B73EB33
:10054000050705D3121B63EB050306434CEA010CB8
:1005500049084FEA300092185B4150EA0107EDD19B
:1005600052EA030012D082EA040083EA050108433C
:1005700005D0101BAB4106D20122002306E0002269
:100580004FF0004302E06FF0010253101AEB060037
:100590004CEB085110EB0A0041EB0B01BDE8F04DAC
:1005A00000F0C3B870B521F0004303430CD0C1F391
:1005B0000A550024D5EB040564EB0403D617AD1AE5
:1005C000B34102DB0020014670BD201841EB02510F
:1005D00070BDC10F80EAE0700844CA07962300216D
:1005E00000F075B800F0004220F00040C10DC0F3EB
:1005F000160040F400007F2901DA00207047962998
:1006000003DCC1F19601C84001E096398840002A18
:10061000F4D04042704770B5C1F30A5201F0004572
:100620000024C1F3130140F2FF3341F480119A42D8
:1006300001DA002070BD40F233439A42A2F2334205
:1006400003DC5242FFF76EFD00E090402C43F1D0F6
:10065000404270BD00F0004230F000400AD0C10DB1
:1006600001F56071C0F3160042EA0151C20840076B
:1006700011437047002001467047202A04DB203ACE
:1006800000FA02F1002070479140C2F1200320FAE5
:1006900003F3194390407047202A06DBCB17203A1A
:1006A00041FA02F043EAE07306E041FA02F3D04077
:1006B000C2F1200291400843194670470029A8BFA3
:1006C0007047401C490008BF20F00100704710B47B
:1006D000B0FA80FC00FA0CF050EA010404BF10BC30
:1006E000704749B1CCF1200421FA04F411FA0CF15D
:1006F00018BF012121430843A3EB0C01CB1D4FEA96
:1007000000614FEA102042BF002010BC704700EB90
:10071000C35010440029A4BF10BC7047401C4900BE
:1007200008BF20F0010010BC704710B5141E73F113
:10073000000408DA401C41F1000192185B411A43A1
:1007400001D120F0010010BD2DE9F04D92469B46ED
:1007500011B1B1FA81F202E0B0FA80F22032904693
:10076000FFF78BFF04460F4640EA0A0041EA0B01FF
:1007700053465A46084313D0114653EA010019D094
:10078000C8F140025046FFF7CDFC05460E465046E4
:1007900059464246FFF771FF084305D0012004E0A7
:1007A00020463946BDE8F08D0020054346EAE07654
:1007B0002C4337430A986305E40AA0EB08000022A3
:1007C000FD0A44EA47540A3002D500200146E9E711
:1007D000010510196941DDE9084500196941BDE8C5
:1007E000F04DA2E7064C074D06E0E06840F001033B
:1007F00094E8070098471034AC42F6D3FFF77AFC30
:10080000F8310008183200080EB5C10F80EAE07018
:100810000844CA07002140F233438DE80E000A461F
:100820000B46FFF791FF03B000BD0EB540F2334118
:1008300002910021CDE900110A460B46FFF784FF23
:1008400003B000BD4FF081420021014801F036BCE9
:100850000000484310B5094A09490A4801F02EFC36
:10086000094C4FF07C520021204601F027FC204625
:10087000BDE81040054A064901F020BCCDCC8CBF34
:10088000F3665FBF000048C3000048436666464009
:10089000F3665F3F70B50E4C0B4A0C49204601F0E1
:1008A0000DFC4FF07C5200210A4801F007FC0A4D74
:1008B0000A492A46204601F001FC2A462046BDE8A6
:1008C0007040002101F0FABB333353C0F3665F3F41
:1008D000000048C300004843000080BFF3665FBFCC
:1008E000FEE700002DE9F0412A4E0F4605460122A1
:1008F0002021304600F0BCF9012001F0D7FC264C45
:10090000B5F5000F61680844606016DB0022012124
:10091000304600F0ADF901220221304600F0A8F97E
:1009200000220821304600F0A3F9012210213046B0
:1009300000F09EF93946284616E00122114630465D
:1009400000F096F900220221304600F091F90122D0
:100950000821304600F08CF900221021304600F0CA
:1009600087F985F00040394601F08EF9E16BA06A05
:1009700001F03EF92063216CE06A01F05FF96063E9
:1009800001F016FF303494E80700BDE8F04101F0B3
:10099000A1BC0000000C01400000002070470000D6
:1009A00010B50021084800F0DDFE0421064800F0E3
:1009B000D9FE0021054800F0D5FEBDE81040042115
:1009C000024800F0CFBE0000C40000200401002057
:1009D0007047000010B590F821100024022903D0C0
:1009E0000421816301243DE001680A6822F00E02BF
:1009F0000A6001680A6822F001020A601A4A016866
:100A0000914201D1012121E0174A1432914201D1D2
:100A100010211BE0144A2832914201D1891515E0BA
:100A2000114A3C32914201D189140FE00E4A5032F2
:100A3000914202D14FF4803108E00B4A6432914276
:100A400002D14FF4801101E04FF08071064A083A5C
:100A50005160012180F82110002180F82010416BA5
:100A600001B18847204610BD0800024070B5044619
:100A700000F004F90546601C02D0044800780444E4
:100A800000F0FCF8401BA042FAD370BD5C000020CF
:100A90002DE9F84FDFF8B891002409F1040A0AF1B2
:100AA000040B23460F270BF1040EC9E00125A540D6
:100AB0002A40AA427DD1674ED1F804C0ACEB0608AB
:100AC000B44532D014DCBCF1030F3AD009DCBCF1E0
:100AD000000F2AD0BCF1010F1CD0BCF1020F31D1A4
:100AE0001DE0BCF1110F17D0BCF1120F2AD119E093
:100AF000B8F5881F19D006DCB8F5803F15D0B8F5D9
:100B0000801F1FD111E0B8F5001F0ED0B8F5041FEB
:100B100018D10AE0CB6815E0CB681B1D12E0CB684A
:100B200008330FE0CB680C330CE08B682BB1012B42
:100B30004FF0080303D0456104E0042302E005619F
:100B400000E00023FF2A01D8064601E000F1040678
:100B50004FEA840501D9A5F12005D6F8008007FAEF
:100B600005FC28EA0C0803FA05F548EA0508C6F86A
:100B700000804D68ED0062D5374DAE6946F0010644
:100B8000AE61AD6924F0030605F001050095334D13
:100B900006EB050CDCF80850A607360F07FA06F836
:100BA00025EA0805DFF8B880404503D14FF000087A
:100BB00017E044E0DFF8AC80404502D14FF0010877
:100BC0000FE0DFF8A480404502D14FF0020808E0B2
:100BD000DFF89880404502D14FF0030801E04FF064
:100BE000040808FA06F848EA0508CCF808804D68B9
:100BF000D9F80060ED034D4601D5164300E0964359
:100C00002E604D68DAF80060AD03554601D51643F5
:100C100000E096432E604D68DBF80060ED025D4613
:100C200001D5164300E096432E604D68DEF8006063
:100C3000AD02754601D5164300E096432E60641C54
:100C40000D682A46E5407FF431AFBDE8F88F00001B
:100C5000000401400000111000100240000001409B
:100C600000080140000C0140001001400014014048
:100C70000AB1016170470904FBE700000148806880
:100C8000704700005C00002070B504001BD094F891
:100C90003D00002520B984F83C50204600F0AEF815
:100CA000242084F83D002068016821F001010160E2
:100CB00000F00AFA4D4A6168914201D84C4900E0BF
:100CC0004C49884201D2012070BD4B492368B0FBDA
:100CD000F1F15E6826F03F060E435E606368934262
:100CE00006D94FF4967359434FF47A73B1FBF3F17D
:100CF0002368491C1E6A26F03F0631431962616869
:100D0000914210D84900401EB0FBF1F2521CC2F3D0
:100D10000B02042A01D2042022E0B0FBF1F0401CB7
:100D2000C0F30B001CE0A368F3B301EBC10202EBBC
:100D30000116421EB2FBF6F2521C42F4804212052A
:100D400049D093B301EBC10202EB0111401EB0FB8D
:100D5000F1F0401CC0F30B0040F4804040F4004030
:100D60002168CA694CF6FF739A431043C861D4E9FD
:100D70000701084321680A6822F0C0021043086096
:100D8000D4E9030101432068826848F2FF339A43A3
:100D900011438160D4E9050108432168CA6822F043
:100DA000FF021043C86001E00EE016E02068016811
:100DB00041F0010101602564202084F83D00256395
:100DC00084F83E50002070BD01EB4106421EB2FB8C
:100DD000F6F2521CB3E70120C2E701EB4101401ECD
:100DE000B0FBF1F0401CC0F30B00B7E7A086010098
:100DF00080841E0000093D0040420F0010B586B0FF
:100E000000210091019102910391006813498842E9
:100E100022D1134CA06940F00800A061A069694686
:100E200000F0080004904FF44070009012200190F0
:100E3000032003900B48FFF72BFE0B48416841F05D
:100E4000E06141F002014160E06940F40010E061BE
:100E5000E06900F40010049006B010BD005400409A
:100E600000100240000C014000000140024881686F
:100E700002781144816070475C000020074810B57B
:100E8000016841F010010160032000F075F80020B6
:100E900000F006F800F024F8002010BD0020024009
:100EA00070B50D4D04464FF47A712878B1FBF0F01F
:100EB0000A490968B1FBF0F000F0ECFA48B9102CCF
:100EC00007D200222146501E00F036F800206C6048
:100ED00070BD012070BD00005C0000206800002093
:100EE0000C4808B5816941F001018161816901F017
:100EF00001010091C16941F08051C161C06900F0F8
:100F0000805000900448416821F0E06141F0007198
:100F1000416008BD0010024000000140002809DBCC
:100F200000F01F02012191404009800000F1E02003
:100F3000C0F8001170470000F0B40E4B1B680C465F
:100F4000C3F30223C3F10705042D00D90425191D9D
:100F5000072901D2002300E0DB1E012606FA05F175
:100F6000491E214099409E40761E16403143F0BCF8
:100F700001F052BC0CED00E0064900F007020868E1
:100F80004FF6FF03184040EA0220034A104308606E
:100F9000704700000CED00E00000FA052DE9F04775
:100FA0000F46050061D0434E306800F00700B8429C
:100FB00009D2306820F0070038433060306800F014
:100FC0000700B84251D128683B4C810712D5400731
:100FD00003D5606840F4E06060602878000703D5BE
:100FE000606840F4605060606068A96820F0F000BC
:100FF000084360602878C00728D06868012810D0AE
:101000002168022810D0890700292EDA616821F0B2
:10101000030101436160FFF731FE804641F28839E8
:101020000DE021688903EFE78901EDE7FFF726FE70
:10103000A0EB0801494502D90320BDE8F0876068AC
:10104000696800F00C00B0EB810FEFD1306800F060
:101050000700B8420BD9306820F0070038433060F1
:10106000306800F00700B84201D00120E5E7287899
:10107000400705D56068E96820F4E06008436060D7
:101080002878000706D56068296920F4605040EA96
:10109000C100606000F038F86168084AC1F30311CC
:1010A000515CC8400649086006480068FFF7F8FE32
:1010B0000020C2E70020024000100240B4300008C7
:1010C0006800002060000020044805490068496865
:1010D000044AC1F30221515CC840704768000020F7
:1010E00000100240C43000080448054900684968FF
:1010F000044AC1F3C221515CC84070476800002017
:1011000000100240C430000812A185B00FC98DE85C
:101110000F0014A0144A006804905168134801F0AD
:101120000C03042B10D0082B0ED1C1F38343C90349
:101130001DF803000AD5516804AAC1F34041515C6F
:101140000A4A5043B0FBF1F005B0704708494843E4
:10115000FAE7000002030405060708090A0B0C0D54
:101160000E0F1010010200000010024000127A0061
:1011700000093D002DE9F84F040070D02078C04DE3
:10118000C00749D06868C0F38100012807D06868AB
:10119000C0F38100022809D16868C00306D5286819
:1011A000800339D560680028E7D035E06068B0F585
:1011B000803F0BD010B1B0F5A02F11D0286820F4DB
:1011C00080302860286820F4802002E0286840F4FD
:1011D00080302860606890B1FFF750FD06460AE055
:1011E000286840F480202860F0E700BFFFF746FD44
:1011F000801B642873D828688003F7D50CE0FFF7BC
:101200003DFD064605E000BFFFF738FD801B642862
:10121000F0D828688003F7D420789A4E80074FF0E2
:1012200001094FF0000839D5686810F00C0F07D09D
:101230006868C0F38100022809D16868C00306D439
:101240002868800714D52069012808D110E020699A
:10125000B0B1C6F80090FFF711FD074605E00AE1BE
:10126000FFF70CFDC01B0228C4D828688007F7D5FB
:101270002868616920F0F80040EAC10028600DE0AC
:10128000C6F80080FFF7FAFC074604E0FFF7F6FC1B
:10129000C01B022823D828688007F7D420780007CD
:1012A0002CD57948A169D9B1C0F80090FFF7E6FCC8
:1012B000074604E0FFF7E2FCC01B02280FD8686A6B
:1012C0008007F7D571484FF4FA510068B0FBF1F090
:1012D000009000BF0098411E0091FAD20EE080E01D
:1012E000C0F80080FFF7CAFC074604E0FFF7C6FC21
:1012F000C01B022875D8686A8007F7D42078400799
:1013000060D5E8690027C00008D4E86940F0805043
:10131000E861E869012700F0805000905C480168AE
:10132000C90513D40168834641F480710160FFF759
:10133000A5FC824606E000BFFFF7A0FCA0EB0A0078
:1013400064284ED8DBF80000C005F5D5E068012818
:101350000AD008B1052813D0286A20F001002862BD
:10136000286A20F0040002E0286A40F001002862A8
:10137000E06841F2883B98B1FFF780FC82460BE0C1
:10138000286A40F004002862EEE700BFFFF776FC11
:10139000A0EB0A0159455AD8286A8007F6D50CE017
:1013A000FFF76CFC824605E0FFF768FCA0EB0A0142
:1013B00059454CD8286A8007F6D41FB1E86920F057
:1013C0008050E861E06988B36968C1F3810102294E
:1013D00044D00228C6F8608004D0FFF74FFC0446D2
:1013E00038E034E0FFF74AFC074604E0FFF746FC2C
:1013F000C01B02282BD828688001F7D4206AB0F5DA
:10140000803F05D16868A16820F400300843686017
:10141000D4E908010843696821F47411084368603D
:10142000C6F86090FFF72AFC044606E025E000BFFE
:10143000FFF724FC001B022809D828688001F7D593
:101440001BE000BFFFF71AFC001B022802D9032093
:10145000BDE8F88F28688001F4D40EE00128F7D0A9
:101460006868226A00F48031914204D1616A00F414
:101470007010884201D00120EAE70020E8E7000070
:1014800000100240000042428004424268000020F6
:101490000070004010B5401EB0F1807F01D30120E4
:1014A00010BD4FF0E02460610F21601701F0B4F926
:1014B0000020A06107202061002010BD70B590F8C9
:1014C0003C20012A19D0012400F83C4F022242702E
:1014D00050F83C3C5A689D6822F070060A684968DA
:1014E000324325F0800529435A6050F83C2C916026
:1014F000447000210170084670BD022070BD10B517
:10150000040003D094F83D0010B107E0012010BDA5
:10151000002084F83C00204600F00CF8022084F8FB
:101520003D00211D206800F031FF012084F83D00BE
:10153000002010BD08B50C4A01680C48914207D143
:10154000C16941F00201C161C06900F0020009E017
:10155000074A914207D1C16941F00401C161C069E4
:1015600000F00400009008BD00040040001002409C
:101570000008004070B5044690F83C00012817D0E0
:10158000012584F83C50022084F83D0020688268E0
:1015900022F0770222F47F4282600868502830D01F
:1015A0000DDC20284DD005DC98B310283BD148E055
:1015B000022070BD302844D0402834D139E0602862
:1015C00028D0702806D0B0F5805F2CD0B0F5005F31
:1015D00029D10AE0CB68D1E90121206800F019FF88
:1015E0002068816841F0770109E0CB68D1E90121E9
:1015F000206800F00EFF2068816841F4804181601E
:1016000011E0CA684968206800F0B8FF50212068DE
:1016100007E016E0CA684968206800F0C0FF602152
:10162000206800F000FF84F83D50002084F83C0062
:1016300070BDCA684968206800F0A0FF402120689A
:10164000EFE7226801461046EBE72DE9F0410D4631
:10165000040003D094F83D0018B108E00120BDE873
:10166000F081002084F83C00204600F03BF8022086
:1016700084F83D002068816844F20702914381604C
:10168000211D206800F082FE226890689169166A28
:101690002B68AF69034340F20330814341EA0721DD
:1016A000A868EF6908434FF6FC418843E96840EABF
:1016B0000720014328692F6A000140EA07300843E8
:1016C00069686D6926F0220646EA0515294393608C
:1016D0002268906120680162012084F83D000020AA
:1016E000BDE7000000B585B0002100910191029195
:1016F0000391194B0268194919489A4212D18A6913
:1017000042F400628A618A6902F4006204928A6982
:1017100042F004028A61896901F0040104914FF4E6
:10172000407113E0B2F1804F14D1CA6942F0010256
:10173000CA61CA6902F0010204928A6942F0040295
:101740008A61896901F004010491032100916946CD
:10175000FFF79EF905B000BD002C014000100240CB
:101760000008014010B50446006891B1042904D076
:101770000122002100F040FE206801225FF00401F8
:1017800000F03AFE2068016841F00101016000208C
:1017900010BD01220021F3E710B586B000210091B1
:1017A000019102910391144C03681448C022022154
:1017B000A3420DD1836943F0040383618069CDE9BD
:1017C000002100F00400CDE9031069460C480FE049
:1017D0000C4CA3420ED1836943F0080383618069F6
:1017E000CDE9002100F00800CDE903106946064864
:1017F000FFF74EF906B010BD000400400010024093
:101800000008014000080040000C014070B504468B
:1018100090F83C000D4601280DD0012684F83C606C
:10182000022084F83D0042B1042A18D0082A2AD0A8
:101830000C2A4DD139E0022070BD206800F0FCFD7B
:101840002068816941F0080181612068816921F087
:1018500004018161206881692A69114311E02068CF
:1018600000F012FE2068816941F400618161206806
:10187000816921F480618161206881692A6941EA76
:101880000221816124E0206800F02AFE2068C169FD
:1018900041F00801C1612068C16921F00401C16102
:1018A0002068C1692A69114311E0206800F044FEF4
:1018B0002068C16941F40061C1612068C16921F4F7
:1018C0008061C1612068C1692A6941EA0221C16160
:1018D00084F83D60002084F83C0070BD10B5040021
:1018E00003D094F83D0010B107E0012010BD0020A6
:1018F00084F83C00204600F00CF8022084F83D00FB
:10190000211D206800F042FD012084F83D000020E8
:1019100010BD704710B504460068012200F06CFD50
:1019200009492068884203D1416C41F40041416477
:101930002068816801F00701062903D0016841F0A1
:1019400001010160002010BD002C01407047000023
:1019500070B5026804461068D168536910F00F0F23
:1019600051D003F0010501F4907635435DD0C207F4
:1019700005D0CA0503D5E26B42F00102E2634207DB
:1019800005D5DA0703D0E26B42F00202E263820778
:1019900005D5DA0703D0E26B42F00402E2630207E6
:1019A00005D5DA0703D0E26B42F00802E263E26B8E
:1019B000002A34D0800604D5880602D5204600F0DF
:1019C00016FE20684069E16BC0F3801001F0080149
:1019D0000143204624D000F0FCFD206841694906FF
:1019E0001AD5416921F040014161606BA0B11B49EA
:1019F0004163606BFEF7EEFF002810D0606B416B17
:101A0000BDE87040084783060FD58B060DD52046EC
:101A1000BDE8704000F0EBBD2046FFF797FF70BDBA
:101A2000FFF794FF0020E06370BD030606D50B06A8
:101A300004D52046BDE8704000F080BE4006F3D5D6
:101A40004806F1D5D168204621F04001D16020211F
:101A500084F8391000F0CAF870BD0000C3250008F2
:101A600070B5040004D094F83900002510B106E0E8
:101A7000012070BD84F83850204600F023F824205F
:101A800084F839002068C16821F40051C160204603
:101A900000F0F8FD2068016921F49041016120689F
:101AA000416921F02A0141612068C16841F4005177
:101AB000C160E563202084F8390084F83A000020F2
:101AC00070BD000030B585B00024009401940294EC
:101AD00003940068184988422BD11848C16941F421
:101AE0000031C161C16901F400310491816941F0A3
:101AF000040181618069124D00F00400049004200B
:101B00000090022001900320039069462846FEF7CA
:101B1000BFFF0820CDE90004694628460294FEF77D
:101B2000B7FF002211462620FFF706FA2620FFF70E
:101B3000F5F905B030BD000000440040001002403F
:101B40000008014090F83A30202B22D1F9B1F2B1CF
:101B500090F83830012B1CD081628285C28500212B
:101B6000C163222280F83A2080F838100168CA68E0
:101B700042F48072CA6001684A6942F001024A6117
:101B80000068C16841F02001C16000207047012059
:101B9000704702207047000012480022012103789C
:101BA000312B06D0322B07D0332B0CD0342B0ED058
:101BB00012E0C0E9011201E0C0E90121C0F80C20E7
:101BC000C0E9042108E04260C0E90221F8E7426070
:101BD0008260C0E903214161012202490248FFF706
:101BE000B1BF000044000020C40100207047FEE7A0
:101BF0002DE9F0410D1A0F462846FEF7EAFC0E4C7F
:101C0000E168FEF709FB0646A069281AFEF7E1FC29
:101C1000A168FEF701FB3146FEF7A6FA06466069A9
:101C2000FEF7D7FC3146FEF79FFAFEF7DBFCC4E96E
:101C300005053846BDE8F081000000202DE9F0419F
:101C40000D1A0F462846FEF7C4FC0E4CE168FEF75D
:101C5000E3FA0646606A281AFEF7BBFCA168FEF7A5
:101C6000DBFA3146FEF780FA0646206AFEF7B1FC41
:101C70003146FEF779FAFEF7B5FCC4E908053846A7
:101C8000BDE8F081000000202DE9F34F83B0044649
:101C90000498FEF7DFFC0546019101F0D9F9DFF861
:101CA0009CA04FF060494A465346FEF79AFB4FF01E
:101CB000FF384246FEF776FCDFF884B04A465B46C2
:101CC000FEF701FC00221F4BFEF7E4FA06460F4622
:101CD0002046FEF7BFFC04463B4632460091FEF725
:101CE00080FBFEF798FC184EF0632846019901F03E
:101CF000AFF94A465346FEF774FB4246FEF752FCE4
:101D00004A465B46FEF7DFFB00220E4BFEF766FB02
:101D100002460B4620460099FEF763FBFEF77BFC6C
:101D200030640A490498FEF777FA0949FEF71CFA6D
:101D3000FEF758FCB06305B0BDE8F08FCEF7C33FA7
:101D4000F97EC23F0000F03F0000002033B31B4487
:101D50000080BB440849096838B1012808D002282E
:101D600002D140F2DC50886370474FF4FA70FAE712
:101D700040F6FC00F7E7000084010020F0B585B0D4
:101D800000241F480094019402940394816941F057
:101D900020018161816901F020010491816941F094
:101DA00004018161816901F004010491816941F0BC
:101DB000080181618069134F00F00800049000223F
:101DC0003B213846FEF754FF3B2001250226CDE992
:101DD0000005CDE9024669463846FEF759FE102057
:101DE00003960090CDE90154074C69462046FEF762
:101DF0004FFE002210212046FEF73AFF05B0F0BD4D
:101E000000100240000C0140000801400D4810B5D0
:101E10000B4901600C49416000214FF48042816010
:101E2000C0E9031241618161C1610162FEF72CFFCB
:101E3000002803D0BDE81040FEF7CABD10BD000069
:101E40000054004070000020A086010010B58CB046
:101E500024216846FEF77DF90024174809941549A6
:101E60000A94C0E90014102181604EF65F21C0E998
:101E70000314446184610320CDE900040120CDE90D
:101E8000020406210491CDE90540CDE907416946E8
:101E90000948FFF7DAFB08B1FEF79AFD099409A992
:101EA00005480A94FFF70AFB002801D0FEF790FDD1
:101EB0000CB010BD002C0140C400002010B58CB047
:101EC00024216846FEF745F90024184809944FF08C
:101ED00080410A94C0E900144EF65F21C0E9024136
:101EE000046184610320CDE900040120CDE90204EE
:101EF0000494CDE90540079469460C480894FFF71F
:101F0000A4FB08B1FEF764FD099409A907480A94E7
:101F1000FFF7D4FA08B1FEF75BFD044942F21070F6
:101F20004039096848620CB010BD0000040100206F
:101F300010B58EB000240794089409940A940B9469
:101F40001C2168460C94FEF704F9224820490160E0
:101F50004721C0E9011440F2E731C0E9031484616C
:101F6000FFF7CDFA08B1FEF733FD4FF4805007902C
:101F700007A91848FFF7FEFA08B1FEF729FD154832
:101F8000FFF7ACFC08B1FEF723FD0B940BA9114839
:101F90000C94FFF793FA08B1FEF71AFD6020CDE923
:101FA00000040294002269460A480494FFF72EFCBC
:101FB00008B1FEF70DFD042269460648FFF726FC2E
:101FC00008B1FEF705FD0348FFF7E6FB0EB010BDB4
:101FD000000400404401002010B58EB00024079496
:101FE000089409940A940B941C2168460C94FEF7FB
:101FF000B0F82248204901604721C0E9011444F6A5
:102000001F61C0E903148461FFF779FA08B1FEF794
:10201000DFFC4FF48050079007A91848FFF7AAFA91
:1020200008B1FEF7D5FC1548FFF758FC08B1FEF7DC
:10203000CFFC0B940BA911480C94FFF73FFA08B1A1
:10204000FEF7C6FC6020CDE9000402940022694638
:102050000A480494FFF7DAFB08B1FEF7B9FC042242
:1020600069460648FFF7D2FB08B1FEF7B1FC03480A
:10207000FFF792FB0EB010BD000800408401002065
:102080000C4810B50A4901604FF4964141600021A7
:1020900081600C22C160C0E904128161C161FFF757
:1020A000DFFC002803D0BDE81040FEF791BC10BD56
:1020B00000440040C4010020FEE700002DE9F04785
:1020C0008946824617464FF4000600251A4C1B49E4
:1020D0003846FEF7A1F80221FEF7D0F88046B74255
:1020E00007DA1EE049465046FEF7FCFB0A20FEF7E1
:1020F000BDFC6068FEF76DFA01464046FEF786F8C3
:10210000B042EFDA00210846FEF7ECFB6560BDE85F
:10211000F08749465046FEF7E5FB0A20FEF7A6FC8D
:1021200000E0074E6068FEF754FA01464046FEF7AD
:102130006DF8B042EDD2E5E7000000200000C34397
:102140000000808070470000024A00210248FFF72B
:10215000B5BF0000000020400000484310B500213A
:102160000848FFF7D7FB04210648FFF7D3FB0021FF
:102170000548FFF7CFFBBDE8104004210248FFF7F8
:10218000C9BB0000440100208401002010B50A4CA6
:10219000084A00212046FFF791FF084A08492046D7
:1021A000FFF78CFF2046BDE81040064A0021FFF7EC
:1021B00085BF0000CDCC4CBE000048C3333333C0D4
:1021C000F3665F3F000080BF10B5064A0021064855
:1021D000FFF774FFBDE81040044A05490548FFF7C2
:1021E0006DBF00003333F3BF000048C30000404020
:1021F000F3665F3F0000484310B5064A00210648D9
:10220000FFF75CFFBDE81040044A05490548FFF7A9
:1022100055BF00009A9919BF000048C36666464042
:10222000F3665F3F0000484310B50C4A00210C489C
:10223000FFF744FF0D4C0B4A0B492046FFF73EFFCA
:102240004FF07F520A492046FFF738FFBDE81040A3
:10225000084A00210848FFF731BF00009A99F9BFEA
:10226000000048C33333333F507756BF0000484324
:10227000920A863F9A9999BE0000C8C210B5084CD0
:10228000054A06492046FFF719FF2046BDE81040E1
:10229000044A0021FFF712BF48E17A3FF3665FBFAF
:1022A000000048433333333F70470000064901289C
:1022B00007D106480268536A42F21070C31A0B60D5
:1022C000506208687047000000000020C400002031
:1022D00070470000044B10B51C6860631868816388
:1022E00002480068426310BD4401002084010020C0
:1022F000FEF7BCBD30B58FB028216846FDF729FF39
:1023000014210AA8FDF725FF01210804CDE90010DA
:102310000024029402250491CDE907504FF4E01007
:1023200009906846FEF726FF0F20CDE90A056802EE
:10233000CDE90C4002210AA80E94FEF72FFE0FB043
:1023400030BD00000D48016841F0010101604168A5
:102350000B4A1140416001680A4A1140016001685E
:1023600021F480210160416821F4FE0141604FF4B5
:102370001F0181600449C0030860704700100240DB
:102380000000FFF8FFFFF6FE08ED00E0F0B5026880
:10239000164B174C174D4FF08047984205D0B84266
:1023A00003D0A04201D0A84203D122F070064A68AF
:1023B0003243984205D0B84203D0A04201D0A8428F
:1023C00003D122F44074CA6822434C6922F080028F
:1023D000224302608A68C2620A688262984201D11E
:1023E0000969016301214161F0BD0000002C014039
:1023F000000400400008004010B501F01F03012157
:10240000046A99408C430462016A9A401143016254
:1024100010BD10B5846842EA032224F47F440A43C5
:102420002243826010BD826822F070020A4342F0AB
:10243000070181607047000030B5026A22F0010296
:102440000262026A4368846924F073050C682C43B5
:1024500022F002058A682A430A4DA8420BD122F0D5
:102460000805CA6823F440732A434D6922F0040228
:102470001D438B692B434360846149684163026259
:1024800030BD0000002C014030B5026A22F010027D
:102490000262026A436884690D6824F4E64444EAEF
:1024A00005248D6822F0200242EA05120B4DA84255
:1024B0000ED1CD6822F0800242EA05124D6923F464
:1024C000406343EA85038D6922F0400243EA8503B5
:1024D0004360846149688163026230BD002C014021
:1024E00030B5026A22F480720262036A4268C469EB
:1024F00023F4007324F073050C682C438D6843EAC1
:1025000005230C4DA8420ED1CD6823F4006343EAA5
:1025100005234D6922F4405242EA05128D6923F4E5
:10252000806342EA05124260C4614968C163036284
:1025300030BD0000002C014030B5026A22F4805208
:102540000262046A4268C3690D6823F4E64343EA01
:1025500005238D6824F4005444EA0534064DA8424E
:1025600004D14D6922F4804242EA85124260C3617F
:1025700049680164046230BD002C014010B5036A53
:10258000046A24F001040462846924F0F00444EA3B
:10259000021423F00A020A438461026210BD10B5DE
:1025A000036A23F0100303628369046A23F470430F
:1025B00043EA023224F0A00343EA0111826101627E
:1025C00010BD10B5406A0021C185C184FFF7BEF976
:1025D00010BD0168CA6822F49072CA6001684A6935
:1025E00022F001024A61202180F83A10704710B5AC
:1025F00090F83A10222901D0022010BD8168B1F56F
:10260000805F11D00169002901681FD0496801F07D
:102610007F03816A4A1C82620B70C18D491E0904C6
:10262000090CC18518D02BE00269816A002A026872
:10263000526805D0D2B20A80816A491C8162ECE7F7
:10264000C2F308020A80816A891CF7E74A68816A36
:102650004B1C83620A70E0E70168CA6822F020021E
:10266000CA600168CA6822F48072CA6001684A6957
:1026700022F001024A61202180F83A10FFF78CFA1B
:10268000002010BD2DE9F041044600680169E268B0
:1026900021F44051114301612169A0680843616937
:1026A00008432168CA6841F20C639A430243CA6036
:1026B00020684169A26921F44071114341611E49BA
:1026C000206864253226884202D1FEF70DFD01E024
:1026D000FEF7FAFC00EBC00101EB001160686FF03F
:1026E00018078000B1FBF0F2B2FBF5F2B1FBF0F39A
:1026F0007A4303EB8202B1FBF0F306EB0212B2FB6A
:10270000F5F2B3FBF5F302F0F00202EB0312B1FBBA
:10271000F0F3B1FBF0F0B0FBF5F0784303EB800091
:1027200006EB0010B0FBF5F0216800F00F0010443C
:102730008860BDE8F08100000038014090F8391051
:10274000212901D0022070478168B1F5805F016ABC
:102750000BD04A1C0262026809785160C18C491E84
:102760000904090CC1840ED017E009880268C1F37E
:102770000801516001690029016A02D0491C016207
:10278000ECE7891CFBE70168CA6822F08002CA6096
:102790000068C16841F04001C1600020704700003E
:1027A0000148FFF7D5B80000C4010020FEE7000093
:1027B0000E484FF448714A42036B934201DA0263B8
:1027C00002E08B4200DD0163436B934201DA426316
:1027D00002E08B4200DD4163816B4FF47A729142DB
:1027E00002DB5200914200DD82637047000000204E
:1027F000490050EAC12018BF04204A0D18BF40F01C
:10280000010040F2FF72B2EB515F08BF40F00200DE
:10281000012808BF052070470907090E002804DBBE
:1028200000F1E02080F80014704700F00F0000F184
:10283000E02080F8141D70472DE9F74F144694B03E
:102840000021C4E902111599079121F00045C949F9
:102850008D4206DC1599C4E9000117B00020BDE8DF
:10286000F08FC549DFF814A3A9423CDD0799C44E97
:102870000029C44FC44A1599534619DDFDF7ABFD35
:10288000554506D0C14AC24BFDF7A5FDC4E900017C
:102890000AE04FF0D352BE4BFDF79DFD32463B465A
:1028A000FDF799FDC4E9000117B00120BDE8F08FE4
:1028B000FDF7F0FC554506D0B44AB54BFDF7EAFCF0
:1028C000C4E900010AE04FF0D352B14BFDF7E2FC3E
:1028D00032463B46FDF7DEFCC4E9000117B04FF07D
:1028E000FF30BDE8F08FAB49A942159978DB21F0A4
:1028F000004183468846A84AA84BFDF772FD002296
:10290000A74BFDF7C7FCFDF786FE0990FDF77CFF9E
:1029100006460F469C4A5346FDF763FD43465A461A
:10292000FDF75CFD80468A46984A994B3046394609
:10293000FDF757FD2A0D01250B9242465346FDF740
:102940004DFD032DC4E9000139D00B98C1F30A51A4
:10295000401A05EB45111139814230DA9148C346DE
:10296000784400EB0510CDF80CA00C90D0E90023C2
:1029700030463946FDF735FD02460B460491069078
:1029800058460399FDF727FD80468A4602460B46C6
:1029900058460399FDF71FFD049B069AFDF71BFDA2
:1029A00083460C9803913946D0E902233046FDF75F
:1029B00018FD5A46039BFDF70EFD6D1CBDE70798F9
:1029C0000028A2BF099817B0BDE8F08F616881F0B8
:1029D00000416160099817B04042BDE8F08FFFE701
:1029E00084461598C1F31301C0F30A50A0F2F530E4
:1029F0004FEA601800F01F06C6F120001390002077
:102A00000690079041F4801E05206D4676B1664A17
:102A100008EB00017A4452F8213002EB8101B34007
:102A20004A68139922FA01F1194305E05F4908EB5E
:102A30000002794451F82210A1FB0E27A1FB0C13D0
:102A40001A449A4234BF0123002303EB070A05EB23
:102A50008003D3E901B70F448F4234BF0121002125
:102A600093448B4411B1934502D903E0934501D2BD
:102A7000012100E00021C3E901B7514445F82010CD
:102A8000011EA0F10100C1DC0298059F00F1005079
:102A9000800F12900298DDE903568000FDF7B4FE26
:102AA000834628460D91FDF7C0FE6FF01D02FDF72D
:102AB00079FDCDE90E013046FDF7B7FE6FF03D021E
:102AC000FDF770FD80468A463846FDF7AEFE6FF092
:102AD0005D02FDF767FD0746424653461191FDF73B
:102AE000D9FBDDE90E23FDF7D5FB5A460D9BFDF71B
:102AF000D1FB00250E465A4628460D9BFDF76BFC80
:102B0000DDE90E23FDF767FC42465346FDF763FC03
:102B10003A46119BFDF762FCDFF898A0244A534621
:102B2000FDF75FFC07468846234A244B314628467A
:102B3000FDF757FC3A464346FDF7ACFB074688468F
:102B40004FF0A842534631462846FDF74AFC3A4624
:102B50004346FDF79FFB159A12F0004F04D0129ADE
:102B600081F0004152421292C4E90001129817B05C
:102B7000BDE8F08FFB21E93F7CD90240FB21F93F02
:102B80007370032E8A19A33B000040543163621A0C
:102B900061B4D03DFB21394183C8C96D305FE43F4A
:102BA0000000E03F6C070000E8060000CA060000D5
:102BB000182D4454FB21F93D3326A611460B113C38
:102BC0002DE9F0414F1E00EBC7010446D1E9000199
:102BD00015461E4637F006020DD02A463346FDF74D
:102BE00000FC7F1E04EBC703D3E90023FDF752FB73
:102BF00037F00602F1D1022F25D0042F13D0062F73
:102C000018BFBDE8F0812A463346FDF7EAFBD4E958
:102C10000A23FDF73FFB2A463346FDF7E2FBD4E9E2
:102C20000823FDF737FB2A463346FDF7DAFBD4E9E4
:102C30000623FDF72FFB2A463346FDF7D2FBD4E9E6
:102C40000423FDF727FB2A463346FDF7CAFBD4E9E8
:102C50000223FDF71FFB2A463346FDF7C2FBD4E9EA
:102C60000023BDE8F041FDF715BB00002DE9F04D54
:102C700004468CB0904821F00047164698460D4611
:102C80000991874206DA20462946FDF7C4FC002850
:102C900000F0AE808948B8421CDC09980028BCBF0F
:102CA00085F0004588F00048854A864B2046294635
:102CB000FDF794FB04460D4632464346824883495D
:102CC000FDF789FB22462B46FDF7E4FA0026044671
:102CD0000D46B04622462B4610461946FDF781FBAD
:102CE0008B46824602460B46FDF77BFB0246089068
:102CF00077480B46009106217844FFF761FFCDE944
:102D00000310744806217844009B089AFFF758FF87
:102D100052465B46FDF765FBCDE9051052465B4622
:102D200020462946FDF75DFB07910090DDE9031081
:102D3000DDE90532FDF7AEFA079B009AFDF751FB7E
:102D400032464346FDF7A6FA52465B46FDF749FB7D
:102D500032464346FDF79EFA80460E465E4A5F4B7A
:102D600007990098FDF73DFB42463346FDF792FA7E
:102D700082468B4622462B46FDF78CFA80464F480A
:102D80000E46B84214985BDCFDF73EFD074642460E
:102D900033460591FDF77EFACDE9011042463346F0
:102DA00010461946FDF71DFBDDE90132FDF78BFBEF
:102DB00052465B46FDF70FFB22462B46FDF70EFB06
:102DC0000122FDF7EFFB3A46059BFDF707FB0446A2
:102DD0000D460998022101EAA070C0F10100FDF73B
:102DE00013FD0CB022462B46BDE8F04DFDF7F9BAB5
:102DF0001498401C384320430BD01498012812D05B
:102E00000CB022462B46BDE8F04D00203449FDF7BA
:102E10005ABB0CB025F000432246BDE8F04D00201F
:102E20003049FDF750BB20462946FFF7E1FC042856
:102E300008BF00F063F820460CB02946BDE8F08DCD
:102E4000012802BF40460CB0BDE8F08D00270B46BC
:102E50003A4620462946FDF7C1FA52465B46FDF741
:102E6000BDFA04460D464246334600201C49FDF794
:102E70002AFB83463A46884633461046FDF7B1FAA8
:102E80000022184BFDF706FA06468A4622462B46D4
:102E900038464146FDF7A5FA32465346FDF7FAF9A2
:102EA0005A464346FDF79DFA0CB03A464346BDE804
:102EB000F04DFDF7EFB900000000303E2894E53FEB
:102EC000182D4454FB21E93F075C143326A6813CAE
:102ED0009C040000BE040000635555555555D53F70
:102EE0000000F0BF0000F03F0122FDF75BBB0022B5
:102EF000134610461146FDF7E6BA0000024A0020CC
:102F00001107FDF74FBB000001FDFFFF02E008C8FD
:102F1000121F08C1002AFAD170477047002001E053
:102F200001C1121F002AFBD170470000014908604F
:102F3000704700006C000020FDF7A0FFFFF7DAF9F2
:102F4000FEF71CFFFEF762FFFEF780FFFEF7B6FFFD
:102F5000FEF7EEFFFFF740F8FFF792F8FFF7FEF8F5
:102F6000FDF71EFD012237493748FEF7EBFD022031
:102F7000FEF7F0FEFFF7E8F8324D344C41F28836A8
:102F8000686801280CD0FFF779F90020FEF7E2FE0F
:102F90004FF4FA60FDF76AFDA868012814D024E018
:102FA000FFF76CF9FFF7F2F8012210212046FDF738
:102FB0005FFE3046FDF75AFD002210212046FDF746
:102FC00057FEFDF73FFCE7E7FFF7FEF8012210216F
:102FD0002046FDF74DFE3046FDF748FD002210214A
:102FE0002046FDF745FEFDF735FCC820FDF73EFD08
:102FF000686980B9FFF700F9012210212046FDF72A
:1030000037FE3046FDF732FD002210212046FDF745
:103010002FFEFDF73FFC286901280ED1FFF704F9C8
:10302000012210212046FDF723FE3046FDF71EFD4C
:10303000002210212046FDF71BFE0220FEF78AFE2B
:10304000FEE7000044000020C40100200008014009
:1030500010B5164B21F00042012486B09A4203DCE1
:103060000022134600941CE0114B9A4208D140B94B
:103070004FF00100FFF75AFFFFF739FF06B010BD10
:1030800003DBFFF731FF06B010BD02AAFFF7D4FB48
:1030900000F00100A4EB40000DF1080C00909CE84A
:1030A0000F00FFF7E3FD06B010BD0000FB21E93F74
:1030B0000000F07F00000000000000000102030497
:1030C00006070809000000000102030400000000D8
:1030D00000004054FB21F93F3163621A61B4D03DD6
:1030E0000000601A61B4D03D7370032E8A19A33BAF
:1030F0000000002E8A19A33BC14920259A837B3901
:1031000000000000000000006E83F9A22915444E63
:10311000D15727FCC0DD34F5999562DB4190433CE3
:10312000AB6351FE61C5BBDE3A6E24B7E0D24D42BF
:10313000EA2E49061C92D1091CEB1DFE3EA729B1BF
:10314000F53582E88444BB2E26709CE9417E5FB44D
:1031500039D69139F43953838B5F849C3B28F9BD70
:10316000FF97F81F0F9805DE8B112FEF1F6D0A5A7E
:10317000CF7E366DB709CB27663F464F2DEA5F9E5F
:10318000C7BA27757BF1E5EBF739073DEA92528A1A
:10319000B15FFB6B085D8D1F7AFE10111111C13FED
:1031A00037D60684F464963F280356C9226D6D3FD6
:1031B0000165F2F2D844433FA69237A0887E143FBF
:1031C000735360DBCB75F3BEFE41B31BBAA1AB3FBB
:1031D00093846EE9E326823F1583E0FEC8DB573F08
:1031E00068108D1AF726303FE9A7F0320FB8123F6A
:1031F000D47ABF74702AFB3E183200080000002009
:10320000700000000C2F00088832000870000020B9
:10321000980500001C2F00080000000000000000BE
:10322000000020410000803F00000000000000007E
:10323000000000000000000000000000000000008E
:10324000000000000000000000000000000000007E
:10325000000000000000000000000000000000006E
:10326000000000000000000000000000000000005E
:10327000000000000100000010000000000000003D
:083280000024F400000000002E
:04000005080000ED02
:00000001FF
